:020000041000EA
:10100000380700202D100010000000000000000034
:1010100000040100000100000348854600F030F89C
:1010200000480047FD190010380700200549064A0E
:1010300030200A600431401EFBD104488047044838
:101040000047FEE70000002000BFFEE7A9130010E4
:101050001910001030B50B46014600202022012453
:1010600009E00D46D5409D4205D31D469540491BDC
:101070002546954040191546521E002DF1DC30BD25
:10108000064C0125064E05E0E36807CC2B430C3CDB
:1010900098471034B442F7D3FFF7C2FF301A00105C
:1010A000501A001010B50D48006A0421084080084D
:1010B000002811D007210A4800F022FC0821084826
:1010C00000F01EFC0921064800F01AFC0348006BE2
:1010D000042108430149086310BD00008001044851
:1010E000000004400448C068400840000121084353
:1010F0000149C86070470000000104482948C068E1
:10110000FF210131884308432649C8602648406AC8
:10111000000900010B210843234948620846406B3F
:10112000000C0004214908431F4948630846C06B6E
:10113000000C00041E4908431B49C8631948006994
:101140004008400001210843164908610846C0686C
:1011500040084000012108431249C860124880300D
:10116000406A0421884308430F4980314862084699
:10117000806A0C2188430C49803188620846406AA5
:101180004008400001210843074980314862084671
:10119000806A800880000221084303498031886208
:1011A000704700000000044800010448117A000064
:1011B000083D00001CB58021684601706A46002188
:1011C000224800F041FB6A460121204800F03CFB28
:1011D0006A4606211D4800F037FB6A4607211B4876
:1011E00000F032FB6A460821184800F02DFB6A46E1
:1011F0000921164800F028FB1021684601706A4654
:101200000321134800F020FBB821684601706A46AC
:1012100002210F4800F018FB00210C4800F06AFB87
:1012200001210A4800F066FB0621084800F062FB35
:101230000721064800F05EFB0821044800F05AFB35
:101240000921024800F056FB1CBD000000000440CC
:101250000001044010B5152000F062FB112000F0E1
:101260005FFB092000F05CFB0121112000F064FB12
:101270000321152000F060FB0221092000F05CFB37
:1012800010BD0000C02017494862174800690421BA
:101290008843084314490861084600694008400033
:1012A0000121084310490861084600690821884364
:1012B00008430D49086108460068FF210902884378
:1012C000FF210131084308490860084600680121F0
:1012D00009048843084304490860C320014948625F
:1012E00070470000000001400003014010B5C0201D
:1012F0000949486209480A49086000BF084800686F
:101300000121890708400028F8D1C320024948621A
:1013100000F008F810BD0000000001400001F13F9E
:101320000003014010B511480068FF210902084080
:10133000000A0F4908600D480068C0B20D490860F6
:101340000B48006800280CD00948006800020A46D3
:10135000126881180848FFF77DFE400007490860C1
:1013600002E007480549086010BD00000003014085
:10137000880100208C010020000024F4FC3F0020A4
:101380000048E8010748008901210903084305498D
:101390000881044840300089C9140843014940319C
:1013A000088170470000054010B5FFF7EBFFFFF71D
:1013B0009DFF10BD03206049C8600846C0685F49B2
:1013C00008605D4800690321890388430121C9033E
:1013D00008435949086108460069800A8002FF21D4
:1013E0002331084354490861084640690321090232
:1013F000884351494861084640691F218902884352
:101400000F21890208434C494861084640694C490C
:1014100008401D2149040843474948610846C069FE
:10142000C008C000C86108468069072109028843D6
:10143000414988610846406B4008400048630846BF
:10144000406B0221884308433B4948630846406B90
:10145000032109028843FF210131084336494863CB
:101460000846406B3F2109048843072109040843CB
:10147000314948630846406B0F210906884307211C
:10148000090608432C4948630846806B03218902FA
:101490008843012189020843274988630846806BF5
:1014A000FF21013188430843234988630846C06B04
:1014B00040084000012108431F49C8630846C06B2B
:1014C000022188431C49C8630846C06B1F210902DA
:1014D00088430721090208431749C863164840306A
:1014E00080680121490388430843134940318860DB
:1014F0000846006800090001022108430E494031F6
:101500000860084600680321090288430A494031FF
:10151000086008460068012189038843084306499A
:1015200040310860084600680121C9038843084328
:1015300001494031086070470002004880010020E6
:10154000FFFF00FC0949C968012252031143074A01
:10155000D16006494031086000BF04498968012212
:10156000520311400029F8D07047000040020048A3
:1015700010B51E488068012189030840800B0028AF
:1015800022D01A48C06808431849C860002118488A
:1015900000F0B6F915484069164909784900164A1D
:1015A00050521448007840001146085A0F49403103
:1015B000086010480078401C0E4908700846007802
:1015C000C82801D100200870084880680121C9039B
:1015D0000840C00B002808D00448C06808430349ED
:1015E000C8600121024800F08BF910BD400200489C
:1015F0000000044084010020A401002010B5002454
:101600000021254800F07CF90121234800F078F9F9
:101610000621214800F074F900BF0AE01F480721A5
:10162000C9014018A100405861001D4A5052601C79
:10163000C4B2082CF2DB1B48406901210843194958
:101640004861084640690221084316494861084636
:10165000406904210843134948610846406908214C
:1016600008431049486108464069102108430D4964
:10167000486108464069202108430A4948610846F4
:101680004069402108430749486108464069802174
:1016900008430449486110BD0000044000040348A9
:1016A000940100208005034863480068400840001A
:1016B0006149086000BF6048006802210840400896
:1016C0000028F8D15C4880300068400940010121C1
:1016D0000843594980310860A020584908612120F9
:1016E0000861222008612320086124200861252048
:1016F00008612620086127200861514800680F21F1
:10170000090488434E490860084640680F210904CF
:101710008843012109040843494948600846806814
:101720000F21090488430121490408434449886082
:101730000846C0680F2109048843032109040843AF
:101740003F49C860084600690F2109048843012108
:10175000890408433A490861084640690F21090491
:1017600088430521090408433549486108468069D2
:101770000F21090488430321490408433049886143
:101780000846C0690F21090488430721090408435A
:101790002B49C86103208003284908600846406837
:1017A00080088000012108432449486008464068B9
:1017B0000421884308432149486020488038006854
:1017C00080088000032108431C49803908600846CE
:1017D0004068012109068843084318498039486058
:1017E0001548803000684000400809060843124947
:1017F0008031086000BF1148803800680121090766
:101800000840000F0028F6D10E480521C9014018F4
:10181000C06940004008090608430A490522D20170
:101820008918C86105488030006B00010009034930
:10183000803108637047000000000348000503483A
:10184000000603480004034830B58B109C00034693
:1018500010331B598C07E50EF824AC40A3438C10C1
:10186000A500044610346351446F4D000323AB4080
:101870009C434467CB089C00034640331B594C07EC
:10188000E50E0424AC40A343CC08A5000446403434
:10189000635153784C07E40EA340CC08A5000446DE
:1018A000403464592343CC08A500044640346351B6
:1018B0000F4B984204D1036E01248C40A34303666E
:1018C000137880242340002B02D053688B40436060
:1018D00013788C07E40EA3408C10A5000446103446
:1018E000645923438C10A50004461034635130BD65
:1018F00000020440012212048A4042607047000046
:10190000014A8A40426070470100010010B5024A56
:10191000024900F05CF810BDED19001090010020A4
:10192000002805DBC206D20E01219140014A116058
:101930007047000000E100E010B5002819DB1A4AEA
:1019400003231B02D21883089B00D2588307DC0EA6
:10195000FF23A3409A438B071B0E8407E40EA3408A
:101960001A43114B032424021B198408A4001A51A2
:1019700018E00E4A03071B0F083B9B089B00D25838
:101980008307DC0EFF23A3409A438B071B0E8407BB
:10199000E40EA3401A43054B0407240F083CA40897
:1019A000A4001A5110BD000000E100E01CED00E0B1
:1019B00002E008C8121F08C1002AFAD17047704718
:1019C000002001E001C1121F002AFBD17047F8B5C9
:1019D00016460F460446002503E03946B047641C0E
:1019E0006D1C20780028F8D12846F8BD70B5044653
:1019F0000D46A0B2FFF7A6FD204670BDFFF742FCE2
:101A0000FFF7D8FBFFF77AFBFFF74EFEFFF7D2FC9C
:101A1000FFF720FCFFF766FB02A0FFF777FF00BF90
:101A2000FEE70000BFAACABCD4CBD0D0A3BA0A003C
:101A3000501A00100000002094010000B01900109E
:101A4000E41B001094010020A4050000C019001040
:101A50002F48FEE72F48FEE72F48FEE72F480047B4
:101A60002F48FEE72F48FEE72F48FEE72F48FEE706
:101A70002F48FEE72F48FEE72F48FEE72F48004794
:101A80002F48FEE72F48FEE72F4800472F48004722
:101A90002F4800472F4800472F4800472F4800474E
:101AA0002F4800472F4800472F4800472F4800473E
:101AB0002F48FEE72F4800472F4800472F48004790
:101AC0002F4800472F4800472F4800472F4800471E
:101AD0002F4800472F4800472F4800472F4800470E
:101AE0002F4800472F4800472F4800472F480047FE
:101AF0002F4800472F4800472F4800472F480047EE
:101B00002F4800472F48FEE72F48FEE72F48FEE703
:101B1000000000000100000002000000431000105F
:101B2000040000000500000006000000070000009F
:101B300008000000090000000A0000004310001027
:101B40000C0000000D0000004310001043100010B6
:101B500043100010431000104310001043100010F9
:101B600043100010431000104310001043100010E9
:101B700018000000711500104310001043100010F1
:101B800043100010431000104310001043100010C9
:101B900043100010FD1500104310001043100010FA
:101BA00043100010A5100010431000104310001047
:101BB0004310001043100010431000104310001099
:101BC000431000102D0000002E00000043100010F4
:101BD0000000000000000000000000000000000005
:041BE0000000000001
:0400000510001019BE
:00000001FF
