:020000040800F2
:10000000600A0020850200089102000891020008A1
:10001000910200089102000891020008000000000F
:100020000000000000000000000000009102000835
:1000300091020008000000009102000891020008EF
:100040009102000891020008910200089102000844
:100050009102000891020008910200089102000834
:1000600091020008000000000000000000000000F5
:1000700091020008000000009102000891020008AF
:100080009102000891020008910200089102000804
:1000900091020008910200089102000891020008F4
:1000A00091020008910200089102000891020008E4
:1000B00091020008910200089102000891020008D4
:1000C00091020008910200089102000891020008C4
:1000D00091020008910200089102000891020008B4
:1000E00091020008910200089102000891020008A4
:1000F000250400085D040008910200089102000830
:100100009102000891020008910200089102000883
:100110009102000891020008910200089102000873
:100120009102000891020008910200089102000863
:100130009102000891020008910200089102000853
:100140009102000891020008910200089102000843
:100150009102000891020008910200089102000833
:100160009102000891020008910200089102000823
:100170009102000891020008910200089102000813
:100180009102000891020008910200089102000803
:1001900091020008910200089102000891020008F3
:1001A00091020008910200089102000891020008E3
:1001B00091020008910200089102000891020008D3
:1001C000000000000000000000000000000000002F
:1001D0000000000000000000910200080000000084
:1001E000910200089102000800000000910200083E
:1001F0009102000800000000000000000000000064
:1002000000F002F800F02EF80AA090E8000C8244FA
:100210008344AAF10107DA4501D100F023F8AFF2D7
:10022000090EBAE80F0013F0010F18BFFB1A43F0D4
:100230000103184768070000780700000023002426
:1002400000250026103A28BF78C1FBD8520728BFE6
:1002500030C148BF0B6070471FB500F09AFB1FBD4F
:1002600010B510BD00F0A4F81146FFF7F5FF00F03F
:1002700086FB00F0C2F803B4FFF7F2FF03BC00F006
:10028000C9F80000DFF818D0064880470648004744
:10029000FEE7000005480649064A074B7047000084
:1002A000600A002005090008010200086000002023
:1002B000600A00206002002060020020032A40F251
:1002C000308010F0030C00F0158011F8013BBCF1F8
:1002D000020F624498BF11F801CB00F8013B38BF10
:1002E00011F8013BA2F1040298BF00F801CB38BF1E
:1002F00000F8013B11F0030300F02880083AC0F039
:10030000088051F8043B083A51F804CBA0E80810E3
:10031000F5E7121D5CBF51F8043B40F8043BAFF316
:100320000080D20724BF11F8013B11F801CB48BF70
:1003300011F8012B24BF00F8013B00F801CB48BFA6
:1003400000F8012B704770477047704710B5203A8E
:10035000C0F00B80B1E81850203AA0E81850B1E87E
:100360001850A0E81850BFF4F5AF5FEA027C24BF34
:10037000B1E81850A0E8185044BF18C918C0BDE82B
:1003800010405FEA827C24BF51F8043B40F8043BF4
:1003900008BF7047D20728BF31F8023B48BF11F8A9
:1003A000012B28BF20F8023B48BF00F8012B704703
:1003B000754600F02BF8AE4605006946534620F01E
:1003C0000700854618B020B5FFF764FFBDE8204060
:1003D0004FF000064FF000074FF000084FF0000B01
:1003E00021F00701AC46ACE8C009ACE8C009ACE8B4
:1003F000C009ACE8C0098D46704710B50446AFF39C
:1004000000802046BDE81040FFF735BF0048704728
:100410000000002001491820ABBEFEE726000200C4
:10042000704700000A48006800F0010070B1022027
:100430004FF001118140074A516000BF044810305D
:10044000006840F001000449C1F8B00170470000A5
:10045000A0C100400081024800C00040064800687A
:1004600000F0010038B104481030006840F001008D
:100470000249C1F8B0027047A0C2004000C000406D
:100480000348006840F001000249C1F80C017047C0
:100490000CC1004000C000400348006840F001006B
:1004A0000249C1F80C0270470CC2004000C0004075
:1004B0004248006840F0040040490860081D006898
:1004C00040F00400091D08603D48006840F010003D
:1004D0003B4908603B48C06840F480703949C860B7
:1004E0003948006820F00F0040F00C00C1F82401EA
:1004F0003548103000686FF30F004FF6FF71084366
:100500003049C1F834010846006940F00100086133
:100510000846C06840F00100C8602B488030006881
:1005200040F00100C1F8A4010846D0F8A80120F06D
:100530000300C1F8A8010846D0F8240220F00F00FB
:10054000C1F824020846D0F8000220F00F00C1F8DC
:1005500000021D48DC30006820F4403040F4803058
:10056000C1F800021848E030006820F4404040F430
:100570008040C1F80402154800686FF30F0040F096
:100580000200C1F834020846006940F0100008611A
:100590000846C06840F00200C8600C48703000682F
:1005A00040F00100C1F8A40208487430006820F04F
:1005B000030040F00100C1F8A80270471044005049
:1005C0000446005000C0004024C1004034C2004036
:1005D00010B52C2000F0ACF92C2000F0B7F92D203C
:1005E00000F0A6F92D2000F0B1F910BD00487047C9
:1005F000001BB70010B57848006800F0010070B922
:100600007548001D006840F001007449C1F80402FB
:1006100000BF7148006800F001000028F9D0704860
:10062000006800F4007058B16D480830006840F46C
:1006300000706B490831086041F64C5000F093F9A6
:100640006848006840F400206649086040F6C4101D
:1006500000F089F96348006863490840614908600F
:1006600060481038006800F0300060B35D48103812
:1006700000685E4908405B4910390860FFF7B6FF23
:100680005B49B0FBF1F0401E56491039096841EA58
:10069000004054491039086052480830006820F082
:1006A00001005049083108604E48006820F40030CD
:1006B0004C49086000BF4B48001F006800F46070A0
:1006C000B0F5607FF7D14748006840F00100454928
:1006D00008600846006840F0100008604548091DA1
:1006E0000860081F006840F04000091F08600846C5
:1006F000006820F0100008600846006840F4802080
:10070000086000BF3748001F006800F004000028A0
:10071000F8D03448006820F001003249086000BF7A
:100720003048001F006800F001000028F8D132486E
:10073000006840F480303049086000202E490831BC
:100740000860091F08602C4914310860091D086001
:10075000032029490C3108602248006820F040003D
:10076000204908602548091D086040F6B83000F0AF
:10077000FAF800BF1B48001F006800F004000028C2
:10078000F8D01F481749091D086041F2941000F085
:10079000EAF800BF1348001F006800F004000028BA
:1007A000F8D018480F49091D086041F2707000F038
:1007B000DAF800BF0B48001F006800F004000028B2
:1007C000F8D0052004499439086000200A49083906
:1007D000086000F019F810BD0042005000400050C1
:1007E0000044005014470050FDFFFEFFCFFFF0FF14
:1007F000A0252600004F13010C460050004F0701B2
:10080000004F0401004F030170B52449096801F449
:10081000803181B32249096801F0010109B1214801
:1008200001E0FFF7E3FE1E490C39096801F00401FD
:10083000C1B11B49091F0968C1F303614E1C184966
:10084000091F0968C1F306214D1C1549091F0968D4
:10085000C1F306414C1C16FB04F1B0FBF1F101FBA6
:1008600005F00AE00E49091F096801F07F014C1CE0
:10087000B0FBF4F001E0FFE70A4808490968C9B293
:10088000491CB0FBF1F00549091D096801F001019F
:10089000491CB0FBF1F00449086070BD0C460050E3
:1008A0001C47005000366E01C0FF002072B612498E
:1008B000124A116000BF00BF00BFBFF34F8F00BFDF
:1008C00000BF00BF62B60D498031096841F4700174
:1008D0000A4A8032116009490C31096821F0080187
:1008E000064A0C3211600649486920F00F0040F0BA
:1008F00003004861704700000000000808ED00E0B8
:100900000020005810B5102251060648FFF7D6FC0B
:100910000548064B0ECB0EC0FFF7C8FFFFF76AFE77
:1009200010BD0000C4FF0020D4FF00208400002080
:10093000002807DB00F01F0201219140024A430911
:1009400042F823107047000080E200E0002809DB35
:1009500000F01F02012191404209920002F1E022C1
:10096000C2F80011704708B50021009103E000BFF4
:100970000099491C009100998142F8D308BDFFF706
:1009800097FDFFF77DFDFFF787FDFFF721FE00BF15
:10099000FEE74FF04070E1EE100A7047AC09000826
:0C09A00000000020600A00003C0200087B
:0400000508000201EC
:00000001FF
